{
  "_format": "hh-sol-artifact-1",
  "contractName": "HiddenSocial",
  "sourceName": "contracts/HiddenSocial.sol",
  "abi": [
    {
      "inputs": [],
      "name": "HandlesAlreadySavedForRequestID",
      "type": "error"
    },
    {
      "inputs": [],
      "name": "InvalidKMSSignatures",
      "type": "error"
    },
    {
      "inputs": [],
      "name": "NoHandleFoundForRequestID",
      "type": "error"
    },
    {
      "inputs": [],
      "name": "UnsupportedHandleType",
      "type": "error"
    },
    {
      "anonymous": false,
      "inputs": [
        {
          "indexed": true,
          "internalType": "address",
          "name": "withdrawer",
          "type": "address"
        },
        {
          "indexed": false,
          "internalType": "uint256",
          "name": "totalAmount",
          "type": "uint256"
        }
      ],
      "name": "BatchWithdrawal",
      "type": "event"
    },
    {
      "anonymous": false,
      "inputs": [
        {
          "indexed": true,
          "internalType": "uint256",
          "name": "requestID",
          "type": "uint256"
        }
      ],
      "name": "DecryptionFulfilled",
      "type": "event"
    },
    {
      "anonymous": false,
      "inputs": [
        {
          "indexed": true,
          "internalType": "string",
          "name": "xAccountId",
          "type": "string"
        },
        {
          "indexed": false,
          "internalType": "uint256",
          "name": "amount",
          "type": "uint256"
        }
      ],
      "name": "FundsDeposited",
      "type": "event"
    },
    {
      "anonymous": false,
      "inputs": [
        {
          "indexed": true,
          "internalType": "string",
          "name": "xAccountId",
          "type": "string"
        },
        {
          "indexed": true,
          "internalType": "address",
          "name": "recipient",
          "type": "address"
        },
        {
          "indexed": false,
          "internalType": "uint256",
          "name": "amount",
          "type": "uint256"
        }
      ],
      "name": "WithdrawalCompleted",
      "type": "event"
    },
    {
      "anonymous": false,
      "inputs": [
        {
          "indexed": true,
          "internalType": "string",
          "name": "xAccountId",
          "type": "string"
        },
        {
          "indexed": false,
          "internalType": "uint256",
          "name": "requestId",
          "type": "uint256"
        },
        {
          "indexed": true,
          "internalType": "address",
          "name": "requester",
          "type": "address"
        }
      ],
      "name": "WithdrawalRequested",
      "type": "event"
    },
    {
      "anonymous": false,
      "inputs": [
        {
          "indexed": true,
          "internalType": "string",
          "name": "xAccountId",
          "type": "string"
        },
        {
          "indexed": true,
          "internalType": "address",
          "name": "userAddress",
          "type": "address"
        }
      ],
      "name": "XAccountBound",
      "type": "event"
    },
    {
      "stateMutability": "payable",
      "type": "fallback"
    },
    {
      "inputs": [
        {
          "internalType": "string",
          "name": "",
          "type": "string"
        }
      ],
      "name": "balances",
      "outputs": [
        {
          "internalType": "uint256",
          "name": "",
          "type": "uint256"
        }
      ],
      "stateMutability": "view",
      "type": "function"
    },
    {
      "inputs": [
        {
          "internalType": "string",
          "name": "xAccountId",
          "type": "string"
        },
        {
          "internalType": "externalEaddress",
          "name": "encryptedUserAddress",
          "type": "bytes32"
        },
        {
          "internalType": "bytes",
          "name": "inputProof",
          "type": "bytes"
        }
      ],
      "name": "bindXAccount",
      "outputs": [],
      "stateMutability": "nonpayable",
      "type": "function"
    },
    {
      "inputs": [],
      "name": "currentRecipientIndex",
      "outputs": [
        {
          "internalType": "uint256",
          "name": "",
          "type": "uint256"
        }
      ],
      "stateMutability": "view",
      "type": "function"
    },
    {
      "inputs": [],
      "name": "emergencyWithdraw",
      "outputs": [],
      "stateMutability": "nonpayable",
      "type": "function"
    },
    {
      "inputs": [
        {
          "internalType": "string",
          "name": "xAccountId",
          "type": "string"
        }
      ],
      "name": "getBalance",
      "outputs": [
        {
          "internalType": "uint256",
          "name": "",
          "type": "uint256"
        }
      ],
      "stateMutability": "view",
      "type": "function"
    },
    {
      "inputs": [],
      "name": "getContractBalance",
      "outputs": [
        {
          "internalType": "uint256",
          "name": "",
          "type": "uint256"
        }
      ],
      "stateMutability": "view",
      "type": "function"
    },
    {
      "inputs": [
        {
          "internalType": "string",
          "name": "xAccountId",
          "type": "string"
        }
      ],
      "name": "getEncryptedAddress",
      "outputs": [
        {
          "internalType": "eaddress",
          "name": "",
          "type": "bytes32"
        }
      ],
      "stateMutability": "view",
      "type": "function"
    },
    {
      "inputs": [],
      "name": "getTotalWithdrawalRequests",
      "outputs": [
        {
          "internalType": "uint256",
          "name": "",
          "type": "uint256"
        }
      ],
      "stateMutability": "view",
      "type": "function"
    },
    {
      "inputs": [
        {
          "internalType": "uint256",
          "name": "requestId",
          "type": "uint256"
        }
      ],
      "name": "getWithdrawalRequest",
      "outputs": [
        {
          "components": [
            {
              "internalType": "string",
              "name": "xAccountId",
              "type": "string"
            },
            {
              "internalType": "address",
              "name": "requester",
              "type": "address"
            },
            {
              "internalType": "bool",
              "name": "isProcessed",
              "type": "bool"
            },
            {
              "internalType": "uint256",
              "name": "timestamp",
              "type": "uint256"
            }
          ],
          "internalType": "struct HiddenSocial.WithdrawalRequest",
          "name": "",
          "type": "tuple"
        }
      ],
      "stateMutability": "view",
      "type": "function"
    },
    {
      "inputs": [
        {
          "internalType": "uint256",
          "name": "requestId",
          "type": "uint256"
        }
      ],
      "name": "isWithdrawalProcessed",
      "outputs": [
        {
          "internalType": "bool",
          "name": "",
          "type": "bool"
        }
      ],
      "stateMutability": "view",
      "type": "function"
    },
    {
      "inputs": [
        {
          "internalType": "string",
          "name": "xAccountId",
          "type": "string"
        }
      ],
      "name": "isXAccountBound",
      "outputs": [
        {
          "internalType": "bool",
          "name": "",
          "type": "bool"
        }
      ],
      "stateMutability": "view",
      "type": "function"
    },
    {
      "inputs": [
        {
          "internalType": "string",
          "name": "xAccountId",
          "type": "string"
        }
      ],
      "name": "requestWithdrawal",
      "outputs": [
        {
          "internalType": "uint256",
          "name": "",
          "type": "uint256"
        }
      ],
      "stateMutability": "nonpayable",
      "type": "function"
    },
    {
      "inputs": [
        {
          "internalType": "string",
          "name": "xAccountId",
          "type": "string"
        }
      ],
      "name": "sendToXAccount",
      "outputs": [],
      "stateMutability": "payable",
      "type": "function"
    },
    {
      "inputs": [
        {
          "internalType": "uint256",
          "name": "requestId",
          "type": "uint256"
        },
        {
          "internalType": "uint256[]",
          "name": "decryptedValues",
          "type": "uint256[]"
        },
        {
          "internalType": "bytes[]",
          "name": "signatures",
          "type": "bytes[]"
        }
      ],
      "name": "withdrawalCallback",
      "outputs": [],
      "stateMutability": "nonpayable",
      "type": "function"
    },
    {
      "inputs": [],
      "name": "withdrawalRequestCounter",
      "outputs": [
        {
          "internalType": "uint256",
          "name": "",
          "type": "uint256"
        }
      ],
      "stateMutability": "view",
      "type": "function"
    },
    {
      "inputs": [
        {
          "internalType": "uint256",
          "name": "",
          "type": "uint256"
        }
      ],
      "name": "withdrawalRequests",
      "outputs": [
        {
          "internalType": "string",
          "name": "xAccountId",
          "type": "string"
        },
        {
          "internalType": "address",
          "name": "requester",
          "type": "address"
        },
        {
          "internalType": "bool",
          "name": "isProcessed",
          "type": "bool"
        },
        {
          "internalType": "uint256",
          "name": "timestamp",
          "type": "uint256"
        }
      ],
      "stateMutability": "view",
      "type": "function"
    },
    {
      "inputs": [
        {
          "internalType": "string",
          "name": "",
          "type": "string"
        }
      ],
      "name": "xAccountToEncryptedAddress",
      "outputs": [
        {
          "internalType": "eaddress",
          "name": "",
          "type": "bytes32"
        }
      ],
      "stateMutability": "view",
      "type": "function"
    },
    {
      "stateMutability": "payable",
      "type": "receive"
    }
  ],
  "bytecode": "0x608060405234801561000f575f80fd5b5061018a6100ae604080516080810182525f80825260208201819052918101829052606081019190915250604080516080810182527350157cffd6bbfa2dece204a89ec419c23ef5755d815273cd3ab3bd6bcc0c0bf3e27912a92043e817b1cf696020820152731364cbbf2cdf5032c47d8226a6f6fbd2afcdacac9181019190915273901f8942346f7ab3a01f6d7613119bca447bb030606082015290565b80517fed8d60e34876f751cc8b014c560745351147d9de11b9347c854e881b128ea60080546001600160a01b03199081166001600160a01b039384161790915560208301517fed8d60e34876f751cc8b014c560745351147d9de11b9347c854e881b128ea6018054831691841691909117905560408301517fed8d60e34876f751cc8b014c560745351147d9de11b9347c854e881b128ea6028054831691841691909117905560608301517fed8d60e34876f751cc8b014c560745351147d9de11b9347c854e881b128ea6038054909216921691909117905550565b7f5ea69329017273582817d320489fbd94f775580e90c092699ca6f3d12fdf7d0080546001600160a01b03191673a02cda4ca3a71d7c46997716f4283aa851c28812179055611e05806101dc5f395ff3fe608060405260043610610102575f3560e01c8063920c98b11161009b578063c9642c461161006d578063db2e21bc11610055578063db2e21bc1461030d578063f90b3a6d14610321578063fdfec5cd1461034057005b8063c9642c46146102e4578063d88150ea146102f857005b8063920c98b114610232578063937b258114610251578063a8bcb12414610280578063ae485651146102b857005b80633a51d246116100d45780633a51d246146101b85780636a75b6e4146101d75780636f9fb98a146101ea57806386b9c2ae146101fc57005b8063088b76d41461010b5780630fde2b2e1461013d5780632afd97a41461016c5780632e94a9dc146101a357005b3661010957005b005b348015610116575f80fd5b5061012a61012536600461164f565b61035f565b6040519081526020015b60405180910390f35b348015610148575f80fd5b5061015c61015736600461164f565b61066a565b6040519015158152602001610134565b348015610177575f80fd5b5061012a610186366004611728565b805160208183018101805160018252928201919093012091525481565b3480156101ae575f80fd5b5061012a60025481565b3480156101c3575f80fd5b5061012a6101d236600461164f565b6106a1565b6101096101e536600461164f565b610718565b3480156101f5575f80fd5b504761012a565b348015610207575f80fd5b5061012a610216366004611728565b80516020818301810180515f8252928201919093012091525481565b34801561023d575f80fd5b5061010961024c36600461182e565b6108b0565b34801561025c575f80fd5b5061027061026b3660046118eb565b610b40565b6040516101349493929190611945565b34801561028b575f80fd5b5061015c61029a3660046118eb565b5f90815260036020526040902060010154600160a01b900460ff1690565b3480156102c3575f80fd5b506102d76102d23660046118eb565b610bfd565b604051610134919061197c565b3480156102ef575f80fd5b5060045461012a565b348015610303575f80fd5b5061012a60045481565b348015610318575f80fd5b50610109610cfd565b34801561032c575f80fd5b5061012a61033b36600461164f565b610d29565b34801561034b575f80fd5b5061010961035a3660046119cc565b610d3b565b5f816103b25760405162461bcd60e51b815260206004820152601c60248201527f58206163636f756e742049442063616e6e6f7420626520656d7074790000000060448201526064015b60405180910390fd5b5f8084846040516103c4929190611a40565b9081526040519081900360200190205490505f6103de8290565b0361042b5760405162461bcd60e51b815260206004820152601360248201527f58206163636f756e74206e6f7420626f756e640000000000000000000000000060448201526064016103a9565b5f60045f815461043a90611a63565b91829055506040805160a06020601f890181900402820181019092526080810187815292935091829188908890819085018382808284375f920182905250938552505033602080850191909152604080850184905242606090950194909452858352600390525020815181906104b09082611aff565b50602082810151600183810180546040808801511515600160a01b0274ffffffffffffffffffffffffffffffffffffffffff199092166001600160a01b039095169490941717905560609094015160029093019290925581518381528083019092525f9290828101908036833701905050905082815f8151811061053657610536611bbf565b60209081029190910101525f6105538263920c98b160e01b610ee5565b6040805160a06020601f8b018190040282018101909252608081018981529293509182918a908a90819085018382808284375f92018290525093855250503360208085019190915260408085018490526060909401869052878352600390525020815181906105c29082611aff565b5060208201516001820180546040808601511515600160a01b0274ffffffffffffffffffffffffffffffffffffffffff199092166001600160a01b03909416939093171790556060909201516002909101555133906106249089908990611a40565b604051908190038120838252907fb974796d7b4a3108d1b36c17bd8a52cdb7acb20e26eec40c9f3ec344792a8ec39060200160405180910390a393505050505b92915050565b5f805f848460405161067d929190611a40565b90815260200160405180910390205490505f6106968290565b151595945050505050565b5f816106ef5760405162461bcd60e51b815260206004820152601c60248201527f58206163636f756e742049442063616e6e6f7420626520656d7074790000000060448201526064016103a9565b60018383604051610701929190611a40565b908152602001604051809103902054905092915050565b5f34116107675760405162461bcd60e51b815260206004820152601260248201527f4d7573742073656e6420736f6d6520455448000000000000000000000000000060448201526064016103a9565b806107b45760405162461bcd60e51b815260206004820152601c60248201527f58206163636f756e742049442063616e6e6f7420626520656d7074790000000060448201526064016103a9565b5f8083836040516107c6929190611a40565b9081526040519081900360200190205490505f6107e08290565b0361082d5760405162461bcd60e51b815260206004820152601360248201527f58206163636f756e74206e6f7420626f756e640000000000000000000000000060448201526064016103a9565b3460018484604051610840929190611a40565b90815260200160405180910390205f82825461085c9190611bd3565b90915550506040516108719084908490611a40565b604051908190038120348252907fa1088313e84f1c9d837d308e9258390ca3045086aae1d2b9fba13cde80bb71699060200160405180910390a2505050565b6108ba8382610ef8565b5f8060015b6004548111610922575f81815260036020526040902060020154861480156108ff57505f81815260036020526040902060010154600160a01b900460ff16155b156109105780925060019150610922565b8061091a81611a63565b9150506108bf565b50806109705760405162461bcd60e51b815260206004820152601c60248201527f5769746864726177616c2072657175657374206e6f7420666f756e640000000060448201526064016103a9565b5f8281526003602052604081206001810180547fffffffffffffffffffffff00ffffffffffffffffffffffffffffffffffffffff16600160a01b1790558551909190869082906109c2576109c2611bbf565b602090810291909101015160018301549091506001600160a01b03808316911614610a555760405162461bcd60e51b815260206004820152603860248201527f556e617574686f72697a65643a2064656372797074656420616464726573732060448201527f646f6573206e6f74206d6174636820726571756573746572000000000000000060648201526084016103a9565b5f6001835f01604051610a689190611be6565b9081526040519081900360200181205491505f90600190610a8a908690611be6565b908152604051908190036020019020558015801590610aa95750804710155b15610b36576040516001600160a01b0383169082156108fc029083905f818181858888f19350505050158015610ae1573d5f803e3d5ffd5b506040516001600160a01b03831690610afb908590611be6565b604051908190038120838252907f15ac46695c2115ca16d4c60a761846c060634ee57eadf256f61cbf97ed2039bc9060200160405180910390a35b5050505050505050565b60036020525f9081526040902080548190610b5a90611a7b565b80601f0160208091040260200160405190810160405280929190818152602001828054610b8690611a7b565b8015610bd15780601f10610ba857610100808354040283529160200191610bd1565b820191905f5260205f20905b815481529060010190602001808311610bb457829003601f168201915b50505050600183015460029093015491926001600160a01b03811692600160a01b90910460ff16915084565b6040805160808101825260608082525f602083018190529282018390528101919091525f8281526003602052604090819020815160808101909252805482908290610c4790611a7b565b80601f0160208091040260200160405190810160405280929190818152602001828054610c7390611a7b565b8015610cbe5780601f10610c9557610100808354040283529160200191610cbe565b820191905f5260205f20905b815481529060010190602001808311610ca157829003601f168201915b505050918352505060018201546001600160a01b0381166020830152600160a01b900460ff161515604082015260029091015460609091015292915050565b60405133904780156108fc02915f818181858888f19350505050158015610d26573d5f803e3d5ffd5b50565b5f808383604051610701929190611a40565b83610d885760405162461bcd60e51b815260206004820152601c60248201527f58206163636f756e742049442063616e6e6f7420626520656d7074790000000060448201526064016103a9565b5f610dc88484848080601f0160208091040260200160405190810160405280939291908181526020018383808284375f92019190915250610f5f92505050565b90505f801b610df35f8888604051610de1929190611a40565b90815260200160405180910390205490565b14610e405760405162461bcd60e51b815260206004820152600b60248201527f6e6f7420656d707479207800000000000000000000000000000000000000000060448201526064016103a9565b805f8787604051610e52929190611a40565b9081526020016040518091039020819055505f60018787604051610e77929190611a40565b90815260405190819003602001902055610e9081610f6c565b50610e9b8133610f7b565b506040513390610eae9088908890611a40565b604051908190038120907fe26ddfeeb7a4a35bde19b5d00b36ede80be4a5ea7666b70cfdc2dbcee7de5aef905f90a3505050505050565b5f610ef183835f610f8d565b9392505050565b5f610f02836110d9565b90505f610f0f82846111aa565b905080610f2f5760405163cf6c44e960e01b815260040160405180910390fd5b60405184907f1af0453083661051f6e56e5c070792320652e612154bf9af8637bb1e7655b99d905f90a250505050565b5f610ef1838360076112c5565b5f610f7782306113e5565b5090565b5f610f8683836113e5565b5090919050565b7f5ea69329017273582817d320489fbd94f775580e90c092699ca6f3d12fdf7d01547fed8d60e34876f751cc8b014c560745351147d9de11b9347c854e881b128ea6008054604051637d6e912360e11b81527f5ea69329017273582817d320489fbd94f775580e90c092699ca6f3d12fdf7d0092916001600160a01b03169063fadd224690611020908990600401611c92565b5f604051808303815f87803b158015611037575f80fd5b505af1158015611049573d5f803e3d5ffd5b50508354604051633263b83b60e01b81526001600160a01b039091169250633263b83b915086906110829087908b908b90600401611ca4565b5f604051808303818588803b158015611099575f80fd5b505af11580156110ab573d5f803e3d5ffd5b50505050506110ba838761146e565b600182018054905f6110cb83611a63565b919050555050509392505050565b5f8181527f5ea69329017273582817d320489fbd94f775580e90c092699ca6f3d12fdf7d0260205260408120546060917f5ea69329017273582817d320489fbd94f775580e90c092699ca6f3d12fdf7d0091900361114a5760405163d66ca67560e01b815260040160405180910390fd5b5f8381526002820160209081526040918290208054835181840281018401909452808452909183018282801561119d57602002820191905f5260205f20905b815481526020019060010190808311611189575b5050505050915050919050565b5f6024816111b785611501565b90505f8167ffffffffffffffff8111156111d3576111d361168e565b6040519080825280601f01601f1916602001820160405280156111fd576020820181803683370190505b509050818360208301377fed8d60e34876f751cc8b014c560745351147d9de11b9347c854e881b128ea60254604051632c027b1360e21b81527fed8d60e34876f751cc8b014c560745351147d9de11b9347c854e881b128ea600916001600160a01b03169063b009ec4c9061127a908a9086908b90600401611cd5565b6020604051808303815f875af1158015611296573d5f803e3d5ffd5b505050506040513d601f19601f820116820180604052508101906112ba9190611d5a565b979650505050505050565b7fed8d60e34876f751cc8b014c560745351147d9de11b9347c854e881b128ea6015460405163196d0b9b60e01b81525f917fed8d60e34876f751cc8b014c560745351147d9de11b9347c854e881b128ea600916001600160a01b039091169063196d0b9b9061133e908890339089908990600401611d8d565b6020604051808303815f875af115801561135a573d5f803e3d5ffd5b505050506040513d601f19601f8201168201806040525081019061137e9190611de1565b8154604051630f8e573b60e21b8152600481018390523360248201529193506001600160a01b031690633e395cec906044015f604051808303815f87803b1580156113c7575f80fd5b505af11580156113d9573d5f803e3d5ffd5b50505050509392505050565b5f7fed8d60e34876f751cc8b014c560745351147d9de11b9347c854e881b128ea6008054604051635ca4b5b160e11b8152600481018690526001600160a01b03858116602483015292935091169063b9496b62906044015f604051808303815f87803b158015611453575f80fd5b505af1158015611465573d5f803e3d5ffd5b50505050505050565b5f8281527f5ea69329017273582817d320489fbd94f775580e90c092699ca6f3d12fdf7d0260205260409020547f5ea69329017273582817d320489fbd94f775580e90c092699ca6f3d12fdf7d0090156114db57604051633f06d22b60e01b815260040160405180910390fd5b5f838152600282016020908152604090912083516114fb928501906115b6565b50505050565b80515f9081805b828110156115a2575f85828151811061152357611523611bbf565b6020026020010151601e6020811061153d5761153d611bbf565b1a605381111561154f5761154f611d79565b9050600981605381111561156557611565611d79565b60ff16101561158057611579602084611bd3565b9250611599565b60405163ce54a8d160e01b815260040160405180910390fd5b50600101611508565b506115ae602082611bd3565b949350505050565b828054828255905f5260205f209081019282156115ef579160200282015b828111156115ef5782518255916020019190600101906115d4565b50610f779291505b80821115610f77575f81556001016115f7565b5f8083601f84011261161a575f80fd5b50813567ffffffffffffffff811115611631575f80fd5b602083019150836020828501011115611648575f80fd5b9250929050565b5f8060208385031215611660575f80fd5b823567ffffffffffffffff811115611676575f80fd5b6116828582860161160a565b90969095509350505050565b634e487b7160e01b5f52604160045260245ffd5b604051601f8201601f1916810167ffffffffffffffff811182821017156116cb576116cb61168e565b604052919050565b5f67ffffffffffffffff8311156116ec576116ec61168e565b6116ff601f8401601f19166020016116a2565b9050828152838383011115611712575f80fd5b828260208301375f602084830101529392505050565b5f60208284031215611738575f80fd5b813567ffffffffffffffff81111561174e575f80fd5b8201601f8101841361175e575f80fd5b6115ae848235602084016116d3565b5f67ffffffffffffffff8211156117865761178661168e565b5060051b60200190565b5f82601f83011261179f575f80fd5b813560206117b46117af8361176d565b6116a2565b82815260059290921b840181019181810190868411156117d2575f80fd5b8286015b8481101561182357803567ffffffffffffffff8111156117f4575f80fd5b8701603f81018913611804575f80fd5b6118158986830135604084016116d3565b8452509183019183016117d6565b509695505050505050565b5f805f60608486031215611840575f80fd5b8335925060208085013567ffffffffffffffff8082111561185f575f80fd5b818701915087601f830112611872575f80fd5b81356118806117af8261176d565b81815260059190911b8301840190848101908a83111561189e575f80fd5b938501935b828510156118bc578435825293850193908501906118a3565b9650505060408701359250808311156118d3575f80fd5b50506118e186828701611790565b9150509250925092565b5f602082840312156118fb575f80fd5b5035919050565b5f81518084525f5b818110156119265760208185018101518683018201520161190a565b505f602082860101526020601f19601f83011685010191505092915050565b608081525f6119576080830187611902565b6001600160a01b03959095166020830152509115156040830152606090910152919050565b602081525f82516080602084015261199760a0840182611902565b90506001600160a01b036020850151166040840152604084015115156060840152606084015160808401528091505092915050565b5f805f805f606086880312156119e0575f80fd5b853567ffffffffffffffff808211156119f7575f80fd5b611a0389838a0161160a565b9097509550602088013594506040880135915080821115611a22575f80fd5b50611a2f8882890161160a565b969995985093965092949392505050565b818382375f9101908152919050565b634e487b7160e01b5f52601160045260245ffd5b5f60018201611a7457611a74611a4f565b5060010190565b600181811c90821680611a8f57607f821691505b602082108103611aad57634e487b7160e01b5f52602260045260245ffd5b50919050565b601f821115611afa57805f5260205f20601f840160051c81016020851015611ad85750805b601f840160051c820191505b81811015611af7575f8155600101611ae4565b50505b505050565b815167ffffffffffffffff811115611b1957611b1961168e565b611b2d81611b278454611a7b565b84611ab3565b602080601f831160018114611b60575f8415611b495750858301515b5f19600386901b1c1916600185901b178555611bb7565b5f85815260208120601f198616915b82811015611b8e57888601518255948401946001909101908401611b6f565b5085821015611bab57878501515f19600388901b60f8161c191681555b505060018460011b0185555b505050505050565b634e487b7160e01b5f52603260045260245ffd5b8082018082111561066457610664611a4f565b5f808354611bf381611a7b565b60018281168015611c0b5760018114611c2057611c4c565b60ff1984168752821515830287019450611c4c565b875f526020805f205f5b85811015611c435781548a820152908401908201611c2a565b50505082870194505b50929695505050505050565b5f815180845260208085019450602084015f5b83811015611c8757815187529582019590820190600101611c6b565b509495945050505050565b602081525f610ef16020830184611c58565b838152606060208201525f611cbc6060830185611c58565b905063ffffffff60e01b83166040830152949350505050565b606081525f611ce76060830186611c58565b602083820381850152611cfa8287611902565b915083820360408501528185518084528284019150828160051b8501018388015f5b83811015611d4a57601f19878403018552611d38838351611902565b94860194925090850190600101611d1c565b50909a9950505050505050505050565b5f60208284031215611d6a575f80fd5b81518015158114610ef1575f80fd5b634e487b7160e01b5f52602160045260245ffd5b8481526001600160a01b0384166020820152608060408201525f611db46080830185611902565b905060548310611dd257634e487b7160e01b5f52602160045260245ffd5b82606083015295945050505050565b5f60208284031215611df1575f80fd5b505191905056fea164736f6c6343000818000a",
  "linkReferences": {},
  "deployedLinkReferences": {}
}